{
  "contractName": "WelfareLottery",
  "abi": [
    {
      "inputs": [],
      "name": "kaijiang",
      "outputs": [],
      "stateMutability": "nonpayable",
      "type": "function"
    },
    {
      "inputs": [],
      "name": "play",
      "outputs": [],
      "stateMutability": "payable",
      "type": "function"
    },
    {
      "inputs": [],
      "stateMutability": "nonpayable",
      "type": "constructor"
    },
    {
      "inputs": [],
      "name": "getBalance",
      "outputs": [
        {
          "internalType": "uint256",
          "name": "",
          "type": "uint256"
        }
      ],
      "stateMutability": "view",
      "type": "function"
    },
    {
      "inputs": [],
      "name": "getPlayers",
      "outputs": [
        {
          "internalType": "address[]",
          "name": "",
          "type": "address[]"
        }
      ],
      "stateMutability": "view",
      "type": "function"
    },
    {
      "inputs": [],
      "name": "getPlayersLenth",
      "outputs": [
        {
          "internalType": "uint256",
          "name": "",
          "type": "uint256"
        }
      ],
      "stateMutability": "view",
      "type": "function"
    },
    {
      "inputs": [],
      "name": "mannager",
      "outputs": [
        {
          "internalType": "address payable",
          "name": "",
          "type": "address"
        }
      ],
      "stateMutability": "view",
      "type": "function"
    },
    {
      "inputs": [
        {
          "internalType": "uint256",
          "name": "",
          "type": "uint256"
        }
      ],
      "name": "players",
      "outputs": [
        {
          "internalType": "address",
          "name": "",
          "type": "address"
        }
      ],
      "stateMutability": "view",
      "type": "function"
    },
    {
      "inputs": [],
      "name": "round",
      "outputs": [
        {
          "internalType": "uint256",
          "name": "",
          "type": "uint256"
        }
      ],
      "stateMutability": "view",
      "type": "function"
    },
    {
      "inputs": [],
      "name": "winner",
      "outputs": [
        {
          "internalType": "address payable",
          "name": "",
          "type": "address"
        }
      ],
      "stateMutability": "view",
      "type": "function"
    }
  ],
  "bytecode": "0x608060405234801561001057600080fd5b50336000806101000a81548173ffffffffffffffffffffffffffffffffffffffff021916908373ffffffffffffffffffffffffffffffffffffffff160217905550610ad2806100606000396000f3fe6080604052600436106100865760003560e01c80638b5b9ccc116100595780638b5b9ccc1461012357806393e84cd91461014e578063a240d39c14610158578063dfbf53ae14610183578063f71d96cb146101ae57610086565b806312065fe01461008b578063146ca531146100b6578063497872eb146100e157806353d9d2f41461010c575b600080fd5b34801561009757600080fd5b506100a06101eb565b6040516100ad9190610842565b60405180910390f35b3480156100c257600080fd5b506100cb6101f3565b6040516100d89190610842565b60405180910390f35b3480156100ed57600080fd5b506100f66101f9565b6040516101039190610805565b60405180910390f35b34801561011857600080fd5b5061012161021d565b005b34801561012f57600080fd5b506101386104c5565b6040516101459190610820565b60405180910390f35b610156610553565b005b34801561016457600080fd5b5061016d6105f6565b60405161017a9190610842565b60405180910390f35b34801561018f57600080fd5b50610198610603565b6040516101a59190610805565b60405180910390f35b3480156101ba57600080fd5b506101d560048036038101906101d091906106bb565b610629565b6040516101e291906107ea565b60405180910390f35b600047905090565b60035481565b60008054906101000a900473ffffffffffffffffffffffffffffffffffffffff1681565b60008054906101000a900473ffffffffffffffffffffffffffffffffffffffff1673ffffffffffffffffffffffffffffffffffffffff163373ffffffffffffffffffffffffffffffffffffffff161461029f577f4e487b7100000000000000000000000000000000000000000000000000000000600052600160045260246000fd5b600042446002805490506040516020016102bb939291906107ad565b604051602081830303815290604052905060008180519060200120905060008160001c90506000600280549050826102f391906109f6565b90506002818154811061032f577f4e487b7100000000000000000000000000000000000000000000000000000000600052603260045260246000fd5b9060005260206000200160009054906101000a900473ffffffffffffffffffffffffffffffffffffffff16600160006101000a81548173ffffffffffffffffffffffffffffffffffffffff021916908373ffffffffffffffffffffffffffffffffffffffff16021790555060006064605a476103ab91906108c7565b6103b59190610896565b9050600081476103c59190610921565b9050600160009054906101000a900473ffffffffffffffffffffffffffffffffffffffff1673ffffffffffffffffffffffffffffffffffffffff166108fc839081150290604051600060405180830381858888f1935050505015801561042f573d6000803e3d6000fd5b5060008054906101000a900473ffffffffffffffffffffffffffffffffffffffff1673ffffffffffffffffffffffffffffffffffffffff166108fc829081150290604051600060405180830381858888f19350505050158015610496573d6000803e3d6000fd5b50600360008154809291906104aa906109a3565b9190505550600260006104bd9190610668565b505050505050565b6060600280548060200260200160405190810160405280929190818152602001828054801561054957602002820191906000526020600020905b8160009054906101000a900473ffffffffffffffffffffffffffffffffffffffff1673ffffffffffffffffffffffffffffffffffffffff16815260200190600101908083116104ff575b5050505050905090565b670de0b6b3a76400003414610591577f4e487b7100000000000000000000000000000000000000000000000000000000600052600160045260246000fd5b6002339080600181540180825580915050600190039060005260206000200160009091909190916101000a81548173ffffffffffffffffffffffffffffffffffffffff021916908373ffffffffffffffffffffffffffffffffffffffff160217905550565b6000600280549050905090565b600160009054906101000a900473ffffffffffffffffffffffffffffffffffffffff1681565b6002818154811061063957600080fd5b906000526020600020016000915054906101000a900473ffffffffffffffffffffffffffffffffffffffff1681565b50805460008255906000526020600020908101906106869190610689565b50565b5b808211156106a257600081600090555060010161068a565b5090565b6000813590506106b581610a85565b92915050565b6000602082840312156106cd57600080fd5b60006106db848285016106a6565b91505092915050565b60006106f0838361070b565b60208301905092915050565b61070581610967565b82525050565b61071481610955565b82525050565b61072381610955565b82525050565b60006107348261086d565b61073e8185610885565b93506107498361085d565b8060005b8381101561077a57815161076188826106e4565b975061076c83610878565b92505060018101905061074d565b5085935050505092915050565b61079081610999565b82525050565b6107a76107a282610999565b6109ec565b82525050565b60006107b98286610796565b6020820191506107c98285610796565b6020820191506107d98284610796565b602082019150819050949350505050565b60006020820190506107ff600083018461071a565b92915050565b600060208201905061081a60008301846106fc565b92915050565b6000602082019050818103600083015261083a8184610729565b905092915050565b60006020820190506108576000830184610787565b92915050565b6000819050602082019050919050565b600081519050919050565b6000602082019050919050565b600082825260208201905092915050565b60006108a182610999565b91506108ac83610999565b9250826108bc576108bb610a56565b5b828204905092915050565b60006108d282610999565b91506108dd83610999565b9250817fffffffffffffffffffffffffffffffffffffffffffffffffffffffffffffffff048311821515161561091657610915610a27565b5b828202905092915050565b600061092c82610999565b915061093783610999565b92508282101561094a57610949610a27565b5b828203905092915050565b600061096082610979565b9050919050565b600061097282610979565b9050919050565b600073ffffffffffffffffffffffffffffffffffffffff82169050919050565b6000819050919050565b60006109ae82610999565b91507fffffffffffffffffffffffffffffffffffffffffffffffffffffffffffffffff8214156109e1576109e0610a27565b5b600182019050919050565b6000819050919050565b6000610a0182610999565b9150610a0c83610999565b925082610a1c57610a1b610a56565b5b828206905092915050565b7f4e487b7100000000000000000000000000000000000000000000000000000000600052601160045260246000fd5b7f4e487b7100000000000000000000000000000000000000000000000000000000600052601260045260246000fd5b610a8e81610999565b8114610a9957600080fd5b5056fea26469706673582212205284dd382c02c15c8a064c774553fa4fd0b99e0eb7314356fce86854ff67d33864736f6c63430008000033",
  "immutableReferences": {},
  "source": "// SPDX-License-Identifier: GPL-3.0\n\npragma solidity ^0.8.0;\n\ncontract WelfareLottery {\n    // \n    address payable public mannager;  //\n    address payable public winner;  // \n    address[] public players;  // \n    uint256 public round;  // \n\n    // \n    constructor() {\n        mannager = payable(msg.sender);   // \n    }\n\n    // \n    function play() public payable {\n        assert(msg.value == 1 ether);   //  1 eth\n        players.push(msg.sender);\n    }\n\n\n    // \n    function kaijiang() public {\n        assert(msg.sender == mannager);\n        //  hashhash  uint256  ==> \n        bytes memory v1 = abi.encodePacked(block.timestamp, block.difficulty, players.length);\n        bytes32 v2 =  keccak256(v1);\n        uint256 v3 = uint256(v2);\n        uint256 index = v3 % players.length;\n\n        // \n        winner = payable(players[index]);\n\n        // 90%\n        // 10%\n        uint256 money1 = address(this).balance * 90 / 100;\n        uint256 money2 = address(this).balance - money1;\n        winner.transfer(money1);\n        mannager.transfer(money2);\n\n        round++;\n        delete players;\n    }\n\n    // \n    function getPlayers() public view returns(address[] memory){\n        return players;\n    }\n\n    function getPlayersLenth() public view returns(uint256){\n        return players.length;\n    }\n\n    // \n    function getBalance() public view returns(uint256){\n        return address(this).balance;\n    }\n\n}",
  "sourcePath": "/Users/denghui/Desktop/Lottery/contracts/WelfareLottery.sol",
  "compiler": {
    "name": "solc",
    "version": "0.8.0+commit.c7dfd78e.Emscripten.clang"
  },
  "schemaVersion": "3.4.5",
  "updatedAt": "2022-03-10T08:40:18.765Z",
  "networkType": "ethereum",
  "devdoc": {
    "kind": "dev",
    "methods": {},
    "version": 1
  },
  "userdoc": {
    "kind": "user",
    "methods": {},
    "version": 1
  }
}